:020000041000EA
:1000000000B5324B212058609868022188439860DF
:10001000D860186158612E4B002199600221596106
:100020000121F02299502B49196001219960352056
:1000300000F044F80222904214D00621196600F024
:1000400034F8196E01211966002018661A6600F04E
:100050002CF8196E196E196E052000F02FF8012189
:100060000842F9D1002199601B49196000215960AB
:100070001A491B48016001219960EB211966A021F2
:10008000196600F012F800219960164914480160C1
:100090000121996001BC002800D000471248134993
:1000A000086003C880F30888084703B5996A0420EC
:1000B0000142FBD001200142F8D103BD02B5186610
:1000C0001866FFF7F2FF186E186E02BD00000240BE
:1000D000000000180000070000035F00212200005C
:1000E000F4000018222000A00001001008ED00E03C
:1000F00000000000000000000000000074B24E7A12
:1001000000200420F7010010C3010010C5010010F9
:10011000C1010010C1010010C1010010C101001097
:10012000C1010010C1010010C1010010C701001081
:10013000C1010010C1010010C9010010CB01001065
:10014000CD010010CD010010CD010010CD01001037
:10015000CD010010CD010010CD010010CD01001027
:10016000CD010010CD010010CD010010CD01001017
:10017000CD010010CD010010CD010010CD01001007
:10018000CD010010CD010010CD010010CD010010F7
:10019000CD010010CD010010CD010010CD010010E7
:1001A000CD010010CD010010CD010010CD010010D7
:1001B000CD010010CD010010CD010010CD010010C7
:1001C00000BE00BE00BE00BE00BE00BEEFF3058054
:1001D000103800BEF2EB8871644C0010884C00109F
:1001E0003402001090A31AE700201F49086006C8D7
:1001F00081F3088810471D48006800282FD10DA4FE
:100200000ECC002902D000F012F8F9E71849194A7B
:10021000002000E001C19142FCD1174988471749ED
:1002200088471749884700BEFDE701C901C29A42C5
:10023000FBD37047884C0010C0000020400F002006
:10024000085B00100000042000000420085B001080
:10025000001004200010042000000000704709482E
:1002600002F0CCF80047000008ED00E0000000D0EC
:10027000400F0020A42100207522001079080010F2
:10028000692300105756000006005250ABB360536C
:10029000C04A001006005250861C0302D04A0010CB
:1002A000060052505422A29DDC4A00100500525014
:1002B000DE65F468085B0010F8B5C0460448054BDD
:1002C00010B5834203D0044B002B00D0984710BDDB
:1002D000400F0020400F00200000000006480749A2
:1002E000091A8B10C90FC91810B5491003D0044B57
:1002F000002B00D0984710BD400F0020400F002079
:100300000000000010B5074C2378002B09D1FFF73F
:10031000D5FF054B002B02D0044800E000BF0123AD
:10032000237010BD4012002000000000B8480010EB
:10033000054B10B5002B03D00449054800E000BF71
:10034000FFF7CCFF10BDC0460000000044120020A3
:10035000B84800102423F0B5C646D0269846012799
:1003600000B5144D3606A84410CD200000F042FB25
:100370003B00A340012200212000736200F022FB19
:100380004545F1D12823D026984601270A4D360647
:10039000A84410CD200000F02DFB3B00A34001221B
:1003A00000212000B36200F00DFBA845F1D180BC14
:1003B000B846F0BDE0480010B84800103B223E4B64
:1003C00010B55A723D4A1E215A813D4A2C20DA60EE
:1003D0003C4A4B245A8208221A753B4ADA833B4A2C
:1003E0001A6224229954033201399954384A163139
:1003F0001A8552225A543749596337491987374960
:1004000099873E21585436480A3158524A20195487
:100410003448043158524E201C5403301954324988
:10042000995245210B329954304901329952304A40
:1004300030491A66662299521221023299542E4985
:100440000A3299522D4A26215A677822995403324A
:10045000113199542A490132995241210B32995450
:10046000284901329950284904329952D121043245
:100470000901995218210232995424490A3299509B
:100480002349043299522E210232995403320439FD
:1004900099542049013299523D210B3299541E49F9
:1004A000013299521D49023299501D490632995222
:1004B00017210232995410BDDC1D00201F1A0000C4
:1004C000161B3C2006070000293500002BE0E13A0E
:1004D000041400004F5150E2E32C0000E3E2FFFF60
:1004E00046470000494A00004D4E00002713000017
:1004F000333831E1E0280000432500000C0E36447B
:100500000F120000231C0B11422400003F2D2F313D
:100510002A400000343000002115000009193E2255
:10052000050A0000FA22024B92001A607047C0468A
:10053000300E0020FA22014B1A607047300E002066
:10054000014B024A1A607047300E0020C4090000B7
:10055000FA22024B92001A607047C046300E00200B
:10056000594BF0B5C646984647003B18DC00E41AE4
:1005700043460D0000B519194B5D06005B0082B0C3
:100580001A43022A07D0032A33D0012A29D002B005
:1005900080BCB846F0BD02F051FF00286ED1BA19F8
:1005A000D3009A1A494B00209B185C5D03F0C2FDF2
:1005B00000280BD02300E03B022B07D9002C6ED182
:1005C000434C2378002B63D1002323700022BE19F3
:1005D000F3009E1B73193F499B0046445A507255C5
:1005E000D5E73C486419A40023584A5501332350E9
:1005F000CDE7384A6419A400A3580133052B01DC68
:10060000A350C4E70023A35002F018FF002858D1DC
:10061000D0231B065B68EB40DB07B8D5BE19F7009B
:10062000BE1B2A4FBE190BE0294C2378002B28D182
:1006300000232370D0231B065B68EB40DB07A6D5A5
:100640000020745D03F076FD0028F3D02300E03B2A
:10065000022BEFD9002CE7D000236A460093938049
:1006600023021C431C4B148001211A7800206B4686
:1006700003F07CFD0122164B1A70DBE702F0E6FE68
:100680008DE7002300220121002003F06FFDCFE75A
:10069000002300220121002003F068FD94E70023DD
:1006A0006A460093938023021C430B4B1480012164
:1006B0001A7800206B4603F059FD0122044B1A7092
:1006C00084E702F0C3FEA3E754150020DC1D0020E0
:1006D000A0210020B01A002048160020F0B5DE4608
:1006E00057464E4645460022E0B5314B85B01A606C
:1006F000304B314F1A1D2433039300239846D023E7
:100700001B069946FF239B460192424601239340D4
:100710004A4602932821536143465A46274C1A40C1
:100720008C46230063449A4653009B18DA00D31A80
:1007300000931AE0FA220023920001F0CFFE009A03
:100740005B4694462B4063449B00FA58801A042869
:1007500008D90532EE40FA500122290040463240C5
:10076000FFF7FEFE043454450BD04B4625685E6807
:1007700001F006F80029DDD1FA21890001F070FEB0
:10078000DDE74B46029A9A61019B039A934203D09C
:1007900004CB90460193B8E701200021404202F0CB
:1007A000E9FE05B0F0BCBB46B246A946A046F0BD86
:1007B00048160020E04800109C1E0020B848001099
:1007C00010B50B7882B00133DBB2042B01D902B033
:1007D00010BD03F0CFFF0400002003F0ABFC0028A5
:1007E000F5D02300E03B022BF1D9002C06D1104CB0
:1007F0002378002B15D100232370E8E700236A46F5
:10080000E4B20093938020020A4B04431480012138
:100810001A7800206B4603F0A9FC0122044B1A70E1
:10082000D5E7002300220121002003F09FFCE2E72E
:10083000A0210020481600200020704710B502A813
:100840000088022A00D010BD0129FCD10028FAD06E
:100850001B781A4206D00022064B01201A6003F0D2
:100860007FFFF0E7002003F07BFFFA22014B9200AC
:100870001A60E8E7300E002070B503F059FF03F06E
:100880001BFEFFF767FDFFF799FD154C154D164E42
:1008900014E0FA220023920001F020FE2B68226867
:1008A000C01A904208D39B1830782B6003F058FF91
:1008B0000122337853403370FFF710FF01200021ED
:1008C000404202F057FE2368002BF5D000F058FF9D
:1008D0000029DED1FA21890001F0C2FDDEE7C04621
:1008E000300E0020C81D0020A221002000487047C3
:1008F00044490010004870475849001000487047AC
:100900002049001070B5041E27D0032834D02ED8FB
:100910001C4BA400E658300003F034FFC0B2011CA9
:100920001F2815D8C9B2002823D00023164DAA1CB1
:10093000F05C0133DCB210800232A142F8D8C0234F
:100940000131C9B249009B0019432800298070BDBC
:100950001F21C9B20028E8D10BE00B4D094B022240
:100960001968A81C02F084F8C1218900EDE7002075
:10097000EDE70649044DE8E71121054802F0C8FA01
:10098000C6E7C046340E00207412002002030000A7
:10099000AC1D0020094A830094464022634410B5F0
:1009A0001C68C0006240C0241440802252011343DE
:1009B0001C60034B9C466044416010BD04C0014074
:1009C000004001400A4B80009C46042360440029FB
:1009D00001D00C230821002A00D10B0002685340EB
:1009E0000C221A4080235B01184302607047C04606
:1009F00004C001400123D022834012069362936118
:100A0000094A83009446402263441968C0004A4062
:100A1000C02111408022520113431960034B9C46B0
:100A2000052360444360704704C00140004001401A
:100A3000024B18688007C00F7047C04600C00640D0
:100A400070B5EFF3108C72B60D4D2B68002BFCD0F7
:100A5000BFF35F8F0724CB08C618C05C01230C408E
:100A6000A3401C000440034207D103433370BFF38B
:100A70005F8F2C608CF3108870BD100001F078FC43
:100A80002C0100D0F8B54746CE46884680B5EFF336
:100A9000108C72B6214D2C68002CFCD0BFF35F8FF8
:100AA0009A422CD8D4080727055D0619012417405F
:100AB000BC402C421FD007210127894609E0D408F9
:100AC000055D06194C4639001440A1400C0029422E
:100AD00011D001329342F2D201204042BFF35F8F26
:100AE00000220E4B1A608CF3108800280FDBC0BC6C
:100AF000B946B046F8BD2C4310003470EEE7BFF3A2
:100B00005F8F00232B608CF3108801204042434606
:100B1000002BECD0089801F02BFCC0462C0100D033
:100B20000021044B044ABFF35F8F02C39342FAD102
:100B30007047C046000100D0800100D0044A107800
:100B4000431CDBB2172B00D9102313707047C0462B
:100B5000440E002000B5054B83B00100009318221D
:100B60001F230348FFF78EFF03B000BD484A001063
:100B70001C16002001238340002904D0034A13607F
:100B8000034A13607047034A1360FBE780E200E00A
:100B900000E100E080E100E0024B10309B68800043
:100BA000C058704700ED00E070B50D00EFF31086FF
:100BB00072B60F4A1368002BFCD0BFF35F8F0D4B4A
:100BC00010309B6884001B590B4A934203D09D420E
:100BD00001D001F0E5FB074B9B681D51BFF35F8F10
:100BE000BFF35F8F0022024B1A6086F3108870BD3E
:100BF000240100D000ED00E0CD010010F0B5574613
:100C00004E46DE464546E0B585B006000291170027
:100C1000EFF3108B72B6674A1368002BFCD0BFF35A
:100C20005F8F0025644B5D579A46002D00DAA4E0E3
:100C30006B00624C03935B199B009846A146C1442C
:100C40004B4652469B79103613705D4BB2009B6841
:100C5000019299580B1B2F2B34D95A4B994200D033
:100C6000A4E0039B584A9C46584B6544AD0063532F
:100C7000434602336519E418554B0121043B1B1B05
:100C80001B055B0D13436B80524BEF71AB80FF2351
:100C9000AB71029BAB604B460B431900484B019A6A
:100CA0009B689950BFF35F8FBFF35F8F0022414B6A
:100CB0001A608BF3108805B0F0BCBB46B246A9465B
:100CC000A046F0BD01200A008243D379BB422FD851
:100CD00045464E46130040491B1B5B415943090DD5
:100CE0003A4B63533A4B02356519043B5B1B1B05BA
:100CF000354D5B0D2B4373800426B446E0444444D9
:100D0000131F1B1B4C46A17102991B05A16049468C
:100D10005B0D2B43A380314BE77101431360BDE7AB
:100D20005800C01880002018C679BE422BD9020096
:100D30000623D356002BF3DA101D8246284880463E
:100D400004267642B446E14450464E46361A3005F3
:100D5000400D824656461C48957106439680039A7C
:100D6000944665441D4AAD00641922604246A37151
:100D7000029BA280E771A36090E701F011FB0025C0
:100D800053465D5754E7101D824690884005001574
:100D900084464046D444664604302018301AE02683
:100DA0000005400D360230438046C9E701F0F8FAED
:100DB00057E7C046240100D0A1210020480E0020A2
:100DC00000ED00E0CD01001000E0FFFF00A1FFFFFB
:100DD000780E002001BDFFFFAAAA0000014880474D
:100DE00001BD0000F0B5DE4657464E464546E0B52B
:100DF0000C0083B0EFF3108972B6584A1368002BC9
:100E0000FCD0BFF35F8F564B9A68030010339F00EE
:100E1000D559544A9046954232D0A54243D0524EBD
:100E2000AA1B2F2A2CD801228240924651464F4AB3
:100E300012681140019151464D4A1160BFF35F8F16
:100E4000EFF305829346002A33D101232A009A4307
:100E500093689C4208D177E04B005B189B00F31825
:100E60009968A1422AD01A00062151560029F3DAC6
:100E7000019B002B19D052463E4B1A603B4B1A6027
:100E8000374B9B68DD51BFF35F8FBFF35F8F00224D
:100E9000324B1A6089F3108803B0F0BCBB46B246EF
:100EA000A946A046F0BD1500EAE75246304B1A604D
:100EB000E6E79342C9D001F073FAC6E70621595616
:100EC000002921DB4A005018800034188046A068B1
:100ED0009860E079D871062020569871002824DBAC
:100EE000A488F01A6405241544440019E024000580
:100EF000400D24022043988052181F4B9200B618D0
:100F00001A781970B271B3E7594600290FD1FF3131
:100F100091711A49918018490A789A71184A9B1B55
:100F20005B415A43120D0A70A2E71648E3E7164ADE
:100F30001649D21A083A5002400D014399801449CB
:100F400052080A43DA8093E706215156130000291C
:100F5000B8DA5A46002AEAD14546DCE7240100D037
:100F600000ED00E0CD010010480E002000E100E09F
:100F700080E100E080E200E0A121002001BDFFFF50
:100F8000AAAA000001BD0000820E002000F0FFFFB1
:100F900000F8FFFF70B5EFF3058101240443EFF380
:100FA000108C72B6214A1368002BFCD0BFF35F8F00
:100FB0001F4B05001F4AED1A6D416A43120D1E4D6D
:100FC0008900AE6852B27658A6421CD00621595606
:100FD00091421CD012215956914222D01E215956BD
:100FE000914220D02A2159560324914210D0134B0C
:100FF00019781A708171BFF35F8F00220B4B1A6052
:101000008CF3108870BDAB680D4C5C50EFE700248A
:101010006100091989005B18FF21997109499980BC
:10102000E5E70124F4E70224F2E7C046240100D0FA
:10103000480E0020AAAA000000ED00E0A121002037
:10104000CD01001001BDFFFF054B064A1360064AA3
:10105000136053609360D360136153619361704771
:101060008080808000E400E004E400E0024B9C46C5
:1010700061448900016070474000003410B50400ED
:10108000FFF75CFD01002000FFF7F0FFFF23237155
:10109000BFF35F8F10BDC04610B50400FFF74EFDD3
:1010A00001002000FFF7E2FFFF23A380BFF35F8F63
:1010B00010BDC04610B504000120FFF74BFD044BE6
:1010C0009C46604480002060BFF35F8F10BDC04627
:1010D0004000003483680B4810B584466144624484
:1010E000090112019A18591854684B6801209C4252
:1010F00001D802D00020C0B210BD12680B689A421D
:10110000F9D8F7E7FFFFFF0F0A4B1968EFF31080DC
:1011100072B60A68002AFCD0BFF35F8F1B68BFF36A
:101120005F8F00221A6080F3108840BF00200021EA
:101130007047C046C41D0020F8B557464E46454688
:10114000DE46E0B599460CAB1C780DAB1B7806006B
:1011500090469A460768002C11D1BC7B002C42D0E7
:1011600065003B682D19033D59194B78BB73002B63
:1011700000D1FB7300238B704B700B7004E0650093
:101180003B682D19033D5919B2682A4B94464246D3
:10119000E3181B0163441A604A465A600A9A9A602F
:1011A0000B9ADA6000238B704B700B707B7B9B4635
:1011B000002B2BD022005946B8687B6898473A68C4
:1011C000002816D05B4658465B005B445519033B2C
:1011D000A870D118D35C002B00D06B705B460C70EC
:1011E0007B73A34513D0F0BCBB46B246A946A046CC
:1011F000F8BD5B465B005B44033BD3189C70511900
:10120000525D002A00D05A705B460B707C734246D8
:101210004B46307D00F02EFB051E06D05346002BBA
:1012200003D12100306800F049FD0E9B002BDAD07D
:101230001D70D8E7FFFFFF0FF0B5DE4657464E465C
:1012400045460023E0B58BB00893674B8200D45825
:1012500000239B46099000F093FA626806000F0095
:10126000EFF3108572B61368002BFCD0BFF35F8FCD
:1012700023689C465B7B9946002B00D169E0A268FD
:101280005A4B90464B441B01984443461A685B688E
:1012900010001900801BB941002900DC63E00998A7
:1012A00000F0E8FA002300229846002306920793F4
:1012B00000239A466368BFF35F8F5A461A6085F32E
:1012C00010885346002B08D10028C4D10BB0F0BCC5
:1012D000BB46B246A946A046F0BD089B414618024F
:1012E0004B461843D047626806000F00EFF31085A5
:1012F00072B61368002BFCD0BFF35F8F002F50DB5A
:1013000033003B4302D02369002B61D12368D97B92
:10131000002907D04A00521819688C464946624491
:10132000033A51709A7B002A01D14A469A734A4681
:10133000DA734B46E168013BCA5C0132CA545B4632
:1013400023616368BFF35F8F5A461A6085F3108884
:1013500081E700230022984600230692079300238A
:1013600000209A46A6E7002902D1002800D096E77F
:101370000021604600F020FC43461A685B68069234
:10138000079343469B689A464346DB689846E36862
:101390004B44013B1B7808931B020343236100204D
:1013A00088E72369002BB1D0069A079B921BBB41AB
:1013B000002B15DB59460491012103914946029106
:1013C00041460191514620000091FFF7B5FEB6E776
:1013D00000F0D6F932003B0012184B41002BE9DA3D
:1013E0000122034B5242E5E7A01A0020FFFFFF0F46
:1013F000FFFFFF7F10B5144C6368002B04D00A2157
:101400001248FFF733FE10BD2300114A1021206857
:1014100000F0ECFA032000F0A7F9032000F094FAA2
:1014200003200C4900F0E0F9FFF788FB0A4B9C46CB
:1014300003232375D0231B061B6860446375074B89
:1014400080006060DC60DAE7900E0020C41D0020A0
:10145000D51000103912001040000034A01A0020EE
:10146000F0B54E464546DE465746E0B585B0019399
:1014700010AB1B7806000393002399469846009210
:101480007268EFF3108B72B61368002BFCD0BFF3B9
:101490005F8F3568AC7B002C3DD067002B683F190F
:1014A000033FDB195A78AA73002A00D1EA73B168A6
:1014B000474A8C4600980199A218120162441060B4
:1014C00051600E9991600F99D16042469A705A709E
:1014D0001A706B7B9A46002B67D022001900A8680F
:1014E0006B6898472A68002852D0534650465B00E4
:1014F0005344D719033BB870D118D35C002B00D0EC
:101500007B7053460C706B7354454FD0F3681B19B6
:10151000013B187800E000207368BFF35F8F4246FC
:101520001A608BF31088002C4FD04B46002B08D14B
:101530000002204305B0F0BCBB46B246A946A04617
:10154000F0BD039B002B3ED00E9B00200F999847C7
:10155000030004000D000B4335D000290ADA009A7D
:10156000019B121BAB4100920193002B0ADB039BF2
:10157000994685E700F004F924184D41009401953F
:10158000002DF4DA0123134C5B4200930194EEE743
:1015900053465B005344033BD3189C70D119D25D72
:1015A000002A00D05A7053460B706C73307D009A3D
:1015B000019B00F05FF981460028A7D02100306828
:1015C00000F07CFBA2E70020B4E701204042B1E735
:1015D000FFFFFF0FFFFFFF7FF0B5EFF30583CE4660
:1015E000474680B505000C0085B0002B12D02C4A70
:1015F0000020536A9C4203D8926A0130AA4204D365
:1016000005B0C0BCB946B046F0BDE01A421E9041DC
:10161000C0B2F5E7234E02930193234B02000093DF
:1016200030000B00FFF71CFF031EE0DD20BF7168D8
:10163000EFF3108772B60A68002AFCD0BFF35F8F01
:10164000DAB294463068427B62451DD0FF221A40D0
:10165000510089460168914488464946414403390E
:101660008978002913D0F1681B0A88464244013A60
:101670001278DBB29A420FD07368BFF35F8F0022FB
:101680001A6087F31088B2E7FF221A40EBE732694D
:101690009342F1D13161EFE7614600F00FFBEBE7D8
:1016A00000400540900E002009110010F0B5EFF346
:1016B0000582D6464F4646461000C0B51038EFF3B7
:1016C000108872B6214C2368002BFCD0BFF35F8FCB
:1016D0000123190081401E4D1F006963AA461D4D5C
:1016E00029601D4D2E78AC463500C5402F402B4259
:1016F00009D1BFF35F8F276088F31088E0BCBA463A
:10170000B146A846F0BD5346144D5F6A83005D594B
:10171000AF420ED3124A8E439B5862461670BFF3F7
:101720005F8F0022226088F31088002BE6D0984754
:10173000E4E70C4B92009C46624413681360BFF3CD
:101740005F8F0023236088F31088D7E7280100D03B
:10175000004005403C700540A3210020CC1D002026
:1017600044140020D03F054010B50100024A034850
:10177000FFF766F910BDC046644A00109F210020A3
:10178000034B596A0A00986A596A8A42FAD170472B
:101790000040054070B504000D00124A536A19005C
:1017A000966A536A8B42FAD13000190024184D41D1
:1017B000AB4211D80ED02B000A494A6A9A42FCD398
:1017C00007D1084A02E0516A994202D1916AA142C6
:1017D000F9D370BDA642EED9012301246442E51776
:1017E0005B42E9E70040054070B504000D00EFF3EF
:1017F000108672B61A4A1368002BFCD0BFF35F8FB5
:10180000002D1BD02000FFF7C7F9164981420AD0EE
:101810002000FFF7C9F901212000FFF7ABF90123F0
:10182000A340114A1360114BA400E550BFF35F8F32
:1018300000220B4B1A6086F3108870BD0B4BA20080
:10184000D5500122A2400A4920000B7893430B7027
:101850000449FFF7C7FA00212000FFF78BF9E5E7FD
:10186000280100D0AD160010386005404414002057
:10187000A3210020F0B54F46D6464646C0B5070026
:101880002C4C616A0D00A66A616AA942FAD18B42AA
:1018900008D805D00120E0BCBA46B146A846F0BD44
:1018A000B242F7D9EFF3108A72B6234801680029D3
:1018B000FCD0BFF35F8F0125BD4020491D4C8846F9
:1018C000097889462943C9B28C464146604608706A
:1018D000391D1B48890065630A51B9000B50216A04
:1018E0000020294219D0616A0800A66A616A814213
:1018F000FAD18B4219D801D1B24216D8CC4516D0B4
:101900000C4B1F201D625D6301230740BB400D4A45
:101910001E38136043464A461A70BFF35F8F002299
:10192000054B1A608AF31088B5E70020F5E701201F
:10193000F3E7C04600400540280100D0A321002065
:10194000CC1D002080E200E0EFF3108C72B60A4953
:101950000B68002BFCD0BFF35F8F01238340074A45
:101960000748136202789A430270BFF35F8F002327
:101970000B608CF310887047280100D000400540B0
:10198000A321002070B5050014001600002915D011
:101990000C00002A12D080686B68984729680028DC
:1019A0000ED073009B196200033B1219CB18033A47
:1019B0009C7088188A5C002A15D10670200070BDC2
:1019C00063001B197200033B9219CB18033A9E70F7
:1019D00088188A5C002A02D104703400EEE75A703D
:1019E00004703400EAE75A700670E7E730B58360A8
:1019F0000023CCB243730133047342608373C47316
:101A00000D000068012C06D9421C0133DBB21370B3
:101A100003329C42F9D1FF2129404B005918002381
:101A200040180338437030BDF8B5CE46474606002F
:101A30000C0080B5002907D04D0003686D18033DE8
:101A40005A195778002F04D12000C0BCB946B046BF
:101A5000F8BD7900C9190339884643445978894645
:101A600000215970517073683A00210080689847CE
:101A70003368002814D042469A18947059195B5D57
:101A8000002B00D053700F70270049463000FFF73D
:101A9000CBFF390002003000FFF774FF0400D3E7EA
:101AA000424641465D19AF709A185B5C002B00D02E
:101AB0006B701470E9E7C046F0B557464546DE4600
:101AC0004E46E0B50D006B0001685B19DF1E040097
:101AD000C85D83B00192CA19002850D043001B187A
:101AE000033BCB185E78B446002E1AD1019E002E1F
:101AF00042D0E67B002E04D073009B19CB18033B29
:101B00005D70A37B002B00D1A573E57300282FD156
:101B10000023537003B0F0BCBB46B246A946A046B2
:101B2000F0BD72006244033A89184A789046002258
:101B30004A7091465A70010032002000FFF722FFE0
:101B400043468246002B07D05B0021684344033B99
:101B5000CB185A78002A16D1424651462000FFF78A
:101B600011FF2168019BCA19002BC2D10028CFD0D8
:101B700043001B18033BCB1800219970C8E7019B59
:101B8000002BB6D1C4E750008018033809184878F4
:101B9000834648464870587041462000FFF7F2FEE1
:101BA000594680462000FFF73FFF414602002000D3
:101BB000FFF7E8FE8046CFE7F0B557464546DE46DC
:101BC0004E46E0B583B00191457B04006B00006890
:101BD0005B19DF1EC15DC219002952D04B005B1892
:101BE000033BC3185E78B446002E1CD1019E002E24
:101BF00044D0E67B002E04D073009B19C318033B2E
:101C00005D70A37B002B00D1A573E573002931D152
:101C1000002328005370617303B0F0BCBB46B2468A
:101C2000A946A046F0BD72006244033A801842788B
:101C300090460022427091465A7020003200FFF711
:101C4000A1FE43468246002B07D05B002168434437
:101C5000033BCB185A78002A17D142465146200040
:101C6000FFF790FE019B01002068C219002BC0D134
:101C70000029CDD04B005B18033BC318002098709F
:101C8000C6E7019B002BB4D1C2E75000801803388F
:101C900009184878834648464870587041462000E5
:101CA000FFF770FE594680462000FFF7BDFE414613
:101CB00002002000FFF766FE8046CEE770B5040004
:101CC00000292CD0437B8B422ED005684800401859
:101CD000033828188278002A21D053009B18033B30
:101CE000EA5CEE188A4202D11BE0002A08D05300B9
:101CF0009B18033BEB185A788A42F6D142785A7007
:101D000000230122837043702000FFF7D5FE617B22
:101D100002002000FFF736FE6073012000E0002083
:101D200070BD43783370EBE701221900FFF7C4FE62
:101D300060730120F4E7C046F8B5CE46474604007C
:101D400080B506200E0000F023FA051E51D0524B3C
:101D50005249E21853425A418023DB039C469205C4
:101D60004F4B62441A604F4B1A6010008B689843C7
:101D7000FBD1494B8021E3185A4253414A4A5B0048
:101D800049009952062000F003FA3100C00000F02B
:101D900067FBC30932D14022012190466162A362F0
:101DA000256BEB0736D427008026E36A00232C3707
:101DB00076013E4333600620256300F0E9F9414691
:101DC000800000F04DFB236B05009846DB073BD4F9
:101DD0006022E36A5A406E23134033604346236314
:101DE000802310229B013B431A60304B2363032363
:101DF000A3642800C0BCB946B046F8BD2C4A934243
:101E00003FD900232B492C4A6162A362256B90467F
:101E1000EB07C8D52200C02330329B011343234A6D
:101E200006201A60666AA26AB601B61800F0B0F918
:101E3000224900F015FBB6020100300000F010FB53
:101E40000021FFF7A7FCAEE72200C02330329B0140
:101E50001343164A06201A60636AA26A9B019946D8
:101E6000914400F095F94B4614499B02994600F0C5
:101E7000F7FA0100484600F0F3FA0021FFF78AFC68
:101E8000A6E77F22990188461040013040081900DA
:101E90008044030082E7C0460080FCBF00C00040D1
:101EA00000E0004000F0004090210020010300000D
:101EB000FEFF0000FFFF0000C0FF3F004E0E0000CD
:101EC00030B50C2083B000F0B9F9FEF7B1FD002861
:101ED0000ED0994B994A1A605A609A60DA601A617A
:101EE0005A619A61DA611A62954A5A6203B030BD4A
:101EF000944CA06700F0AAF90122934B1A60636C1E
:101F0000012BFCD10322914B1A608E4A936B012B5B
:101F1000FCD1013301218E4A8E480093043300F036
:101F20003DF905238C4A009301218C4800F036F9D5
:101F30008B4B5A68FF2A02D8802252005A608022B6
:101F40007D4C824B21691201854D1A60002907D012
:101F5000606900F085FA431C5800C0180338FDD2B0
:101F6000E0217F4B02201A681140802252012A434F
:101F700011601968484003210140116004219A68EA
:101F80001142FCD08022802192012A430901116074
:101F9000802252005A60734B2361734B5968FF29AA
:101FA00000D85A600321684A6F4B116002399A6861
:101FB0001142FCD0E0201A681040802252011A43DE
:101FC00010601868484003210140022011606649F2
:101FD0008A681042FCD080229201134380221201B1
:101FE0001A608022614B52004A606361604B5968FD
:101FF000FF2900D85A6080225E4BE16912015C4DD6
:102000001A60002907D0606900F02AFA431C5800C2
:10201000C0180338FDD2E02255490B681A408023CE
:102020005B012B431A60802380229B012B4312010A
:102030001A608022414B52004A60E3614E4B59685E
:10204000FF2900D85A6080224C4B216A12014A4D68
:102050001A60002907D0606900F002FA431C58009A
:10206000C0180338FDD2E02243490B681A40802390
:102070005B012B431A60802380229B012B431201BA
:102080001A60802380225B004B602C4BD2022362BB
:102090003B4B5968914200D25A608022394B616AA9
:1020A0001201374D1A60002907D0606900F0D8F995
:1020B000431C5800C0180338FDD2E02230490B6899
:1020C0001A4080235B012B431A60802380229B01EE
:1020D0002B4312011A608023DB024B60184B6362B2
:1020E000294B5A68FF2A02D8802252005A60802267
:1020F000264BA1691201244D1A60002907D060699E
:1021000000F0AEF9431C5800C0180338FDD2E0229D
:102110001D490B681A4080235B012B431A60802302
:1021200080229B012B4312011A6080235B004B60CD
:102130000E4BA361DAE6C04620160020006CDC02DC
:102140001BB70000008000403CB0004030B00040B1
:10215000002F685900800240008C864700C0024072
:1021600030800040001BB7003C800040405973079E
:102170005480004054B000406080004060B0004097
:102180006C8000406CB000404880004048B0004087
:10219000014B8000C058704720160020F8B504009D
:1021A00021481D0017000E0000F05AF90100380008
:1021B00000F056F9069B29041B0319432368002BE2
:1021C00020DB1A4B1A4DE21853425A4180235B011F
:1021D0009C461203174B62441A60174B1A60170093
:1021E000AB689F43FBD1C022231D92011A432123D8
:1021F0002660A06013602368002BFCDA0823E160EE
:102200001360F8BD3F2322681340B342D9D1A368BD
:102210001B051B0D8342D4D1EE22E368D20213408A
:102220008B42CED1EDE7C046001BB7000040FDBF9A
:1022300000C0004000E0004000F000408023024A5F
:102240009B000343D362704700800540AA23064ADF
:102250001B0113602F230549D360054B1960536898
:10226000002BFCDA7047C0460040024000B0FA0084
:10227000006002402C4B2D4A70B51A602C4A2D4B41
:102280002D491A6014008B689C43FBD12B4D2C4EBA
:10229000B54208D2013E761BB60808CD9847230008
:1022A0000134B342F9D1FFF70BFE264A214B1A60E5
:1022B000214A9368DB43DB01DD09002BF9D1402281
:1022C000214B224C224E9A675A671A67DA66B4424B
:1022D00008D223682000002B20D00834FEF7DCFE53
:1022E000B442F6D31B4E1C4CC022A168300000F053
:1022F000BFFBA660FEF714FCFEF7A6FEFFF77AF818
:10230000164C174EB44208D2013E361BB60808CC14
:1023100098472B0001359E42F9D170BD0834FEF775
:10232000ADFEB442D5D3DDE700E00040BFCDFBFEFB
:10233000FE7F3C0000F0004000C00040280F00205D
:10234000380F0020FFFFFF0100F00140200F0020A8
:10235000280F00200000002000ED00E0380F0020D2
:10236000400F002000BEFDE710B5FFF7FBFFC046A1
:102370000FB400B5084883B000F0ACFC049B002B00
:1023800007D005A91800019100F018F8034800F0E3
:10239000A1FC0120FFF7E6FF884A0010984A0010D0
:1023A00010B50148FFF7E4FF9C4A001010B5002863
:1023B00000D110BD00F042FCFBE7C04610B5094A51
:1023C0000300146884B0002C08D001220091064854
:1023D000524203A9A047012004B010BD00F07AFCCE
:1023E0000020F9E7981A0020AD23001001480421CD
:1023F000014B1847C00E00201D240010142310B5F7
:102400000100188804331B88984710BD162310B5A7
:102410000100188802331B88984710BDF8B547465D
:10242000CE4680B50F1E19D01423994604330400FC
:102430000025012698464B461888434621681B888C
:10244000984701C4431E9841013540420640AF42BF
:10245000F1D13000C0BCB946B046F8BD0126F8E75E
:10246000114A936F9B0813D210665166002905D05C
:10247000FFE7FFE7FFE7516F106F704704B50028D3
:1024800001D00020C04302F0DFF9002104BDC046A6
:10249000F0B5146E556E576F166FFFF7E5FF1466B3
:1024A000556657671667F0BD000000D094464A4A4B
:1024B000926F9208624601D228E0C046F0B5464EBF
:1024C000346E756E776F366F00F020F89446424A8E
:1024D00014665566576716676246F0BD94463E4AD5
:1024E000926F9208624601D254E0C046F0B53A4E6F
:1024F000346E756E776F366F00F04CF89446364A3E
:1025000014665566576716676246F0BD002B24DBDC
:1025100011D000293EDA00B5C943404200D1013153
:1025200000F038F8C943404200D10131DB43524248
:1025300000D1013300BD002AEBD1002801D10029D0
:1025400005D00020C90FC90701D1C043410800B51B
:1025500002F05AF90022002300BD00B500290ADB71
:10256000DB43524200D1013300F014F8C94340422A
:1025700000D1013100BDC943404200D10131DB43EC
:10258000524200D1013300F005F8DB43524200D142
:10259000013300BD002923D1002B18D1002A0CD013
:1025A000BC460D4F38667A6600210023FFE7FFE73F
:1025B000FFE77A6F386F67467047002801D00748F9
:1025C000010000B502F020F90022002300BD020046
:1025D0000B00002000217047000000D0FFFFFFFF2C
:1025E000002B00D0BFE0130C28D1002AE7D080B424
:1025F000114F39667A66FFE7FFE730B4040C7B6F52
:10260000396F1B0423433B667A66FFE7FFE7FFE76A
:10261000C04684B27B6F3D6F1B0423433B667A66E2
:10262000FFE7FFE7C04600232C042D0C7A6F386FBC
:1026300000196941B0BC7047000000D0F0B5944665
:102640000025140E01D112020835140F01D1120118
:102650000435940F01D192000235D40F01D15200FC
:102660000135D40B0134254F7C66254C3C660E0C9D
:1026700093B2FFE7FFE7FFE73C6F6643360C770353
:10268000BE467343DF0B5B04C01AB941130C73439E
:10269000DB18C91ACE086643360CB64493B27343AE
:1026A0001F0F1B01C01AB941130C73431F0B1B05ED
:1026B000C01AB941860D8F023E436643360C092D80
:1026C00024DB520A7243801A7703460A6643360CAB
:1026D00016235B1BDE40DF40BF1964466643821B46
:1026E0007046043506330100D940A840C01900D314
:1026F0000131A24206D20023F0BD0000000000D04C
:10270000FFFFFFFF121B0130F3D3F1E709277F1B07
:10271000FE406446A2B27243801A00D20139220CF4
:102720007243130C1204821A99410B00704604354F
:1027300013370100F940A840801900D30131002B64
:1027400002D1A2420AD2F0BD013000D30131121BE6
:10275000FAD2013BF8D1A24200D2F0BD013000D341
:102760000131121BF7E7F0B51C0C00D080E00CB46F
:1027700000251C0A04D11B02160E33431202083531
:102780001C0B04D11B01160F3343120104359C0BA3
:1027900004D19B00960F334392000235DC0B02D12B
:1027A00092185B4101351C00971864410134464F73
:1027B0007C66464C3C660E0CFFE7FFE7FFE7C04631
:1027C0003C6F6643360C7703BE4697B27743C01B17
:1027D00000D20139C01B00D201399FB27743C91B17
:1027E000C91B170C77437E04FF0B801BB941CE0831
:1027F0006643360C0C2D33DBB644120B1F053A43EF
:102800001B0B97B27743C01B00D201399FB27743AD
:10281000C91B170C77433E043F0C801BB941860D42
:102820008F023E43664329277F1BFE400C3D7746BF
:10283000AF40BF1930BCA2B2ABB272437343801A2F
:102840009941220C7243130C1204801A9941020020
:102850000B000137001BA941F9D2781E0021F0BD01
:102860000C277F1BFE4077467F0BAF40FF19E0E748
:1028700000245D1C07D0144F7D663966FFE7FFE733
:10288000FFE7FFE73C6F95B29EB265436643401B8E
:10289000B141150C1E0C6543664336042F0C3E43B4
:1028A0002D04401BB141994204D202000B002000CC
:1028B0000021F0BD01D19042F7D3801A9941013433
:1028C0009942F2D3F6E70000000000D0FFFFFFFFBF
:1028D000132370B51D78012D15D010DD1C48FFF7AE
:1028E00095FD1C4C01008022200000F0C1F8022D53
:1028F00006D01948FFF782FD184B186070BD154CC3
:10290000174BA364F5E7164B124C23606360A3607A
:10291000E36023616361A361E36123626362A36295
:10292000E36223636363A363E36323646364A36475
:10293000E36423656365A365E36523666366A36655
:10294000E36623676367A367E367A364D1E7C046D1
:1029500053440000401000204C330000C01D0020F4
:102960006529001007B5604601880A0A0230DF2A8F
:10297000FAD1C9B2820804D3028840880004104307
:1029800000E00068014A5050039007BD401000204D
:1029900051434343C9188C46110C83B24B4310B4C6
:1029A000040C614392B280B2504362431C041B0C7E
:1029B000001910BC59411304120CC0185141614454
:1029C00070470000132310B512481C78FFF71EFD56
:1029D0000100012C0AD003DD80220F4800F048F8E6
:1029E0000E48FFF70BFD0E4B186010BD0A4C542229
:1029F000200000F03DF80B4B6365A365E36523669B
:102A00006366A366E36623676367A367E36723627E
:102A1000E361E5E753460000401100204C3300001D
:102A2000C01D0020292A001007B5604601880A0A47
:102A30000230DF2AFAD1C9B2820804D30288408862
:102A40000004104300E00068014A5050039007BDA5
:102A50004011002001480421014B1847D00E0020EE
:102A60001D240010014B1B6818470000D00E0020E9
:102A7000014B5B6818470000D00E0020030010B522
:102A8000080011001B68984710BDC046F0B54646C7
:102A90004F46D646C0B5437D80460E001700002B3A
:102AA00046D0002A3FDD4B1E9946244B01250024C9
:102AB00000209A460DE04B461B5D0D3B5A425341A8
:102AC000325DDBB20A2A0BD02B00013401359F4264
:102AD0001ADD002CEFD14346325D1B7D0A2AF3D16B
:102AE000002BF1D1A04204DA4346211A1B683018AA
:102AF0009847434650461B680221984701342800F6
:102B00002B0001359F42E4DC874204DD4346391A3D
:102B10001B6830189847F619013E33780D3B5A422E
:102B2000534142461375E0BCBA46B146A846F0BDD3
:102B30000368110030009847F5E7C0460C4B0010C1
:102B4000F0B5DE4657464E464546E0B585B017001F
:102B50001C0006000D00FEF713FE0023304A121879
:102B60004B41002B58DB2F4908008A4601F07CFEC0
:102B700001906B1C03D1300001F004FE0500002C15
:102B800025D1294B9846294B1C68002C15D0002FC5
:102B900020D1274F02E02469002C0ED02368002B9F
:102BA000F9D03B68002B01D0A342F4D120002A00C9
:102BB0003100C0472469002CF0D1019B002B27D1A4
:102BC00005B0F0BCBB46B246A946A046F0BD194BC5
:102BD0009846D8E7164B994602ABDF1D0A239B4661
:102BE00002E02469002CE8D02368002BF9D04B4682
:102BF0001B68002B01D0A342F3D12A003100200032
:102C0000C0475B460122390020003B70C047E8E71F
:102C1000504601F0F1FDD3E70122074B5242A2E7F3
:102C200040420F00200F00208D2A00108C1600203B
:102C3000941600207D2A0010FFFFFF7FF0B5CE46DE
:102C4000474680B583B06B460600DD1D2870FEF751
:102C500097FD00231A4A12184B41002B2BDB194910
:102C60000800884601F000FE174B81461C68002CC6
:102C700014D0164F02E02469002C0FD02368002BDB
:102C8000F9D03B68002B01D0A342F4D120000122EF
:102C90002900FFF7FBFE2469002CEFD14B46002BE7
:102CA00005D1300003B0C0BCB946B046F0BD4046C7
:102CB00001F0A2FDF5E70122054B5242CFE7C046E5
:102CC00040420F00200F00208C1600209416002098
:102CD000FFFFFF7F70B5040001F054FD00230100E9
:102CE000050001222000FFF72BFF084B1C68002C79
:102CF00006D06368002B05D098472469002CF8D1D2
:102D0000280070BD2469002CF3D1F9E78C1600204F
:102D10000A4A1368002B05D10CE01A001B69103217
:102D2000002B07D09842F8D1002902D10369136023
:102D3000016170470029FCD01060FAE78C16002072
:102D4000F0B50D1E15DD0E4B0D271A680D4B4519FC
:102D5000D31859424B410C495B005E5E2021047838
:102D6000A64207D093691942FCD101301460A842F1
:102D7000F5D1F0BD93691942FCD11760F2E7C04666
:102D8000982100200080FCBF9021002030B5040075
:102D90000D1E26DD002010211B4B013C1A68936993
:102DA000194219D1013093691942FCD11368235497
:102DB0008542F4D1154B1B68002B0CD05023936334
:102DC000516B183B34320B401100802252010A43F0
:102DD0001360002815D030BD0C4B1B68002BEDD1C3
:102DE000F7E70A4B1B68002B0BD050223821064B0B
:102DF0001B689A635A6B343311408022520113438B
:102E0000196003204042E6E79821002014160020B4
:102E1000064B10B51B68002B06D00021044A12682F
:102E20009163044A1068984710BDC04614160020EC
:102E300098210020181600201D4BF0B51A68C646D0
:102E400098461C4B0E00D31859424B411A4F14336D
:102E50001C00050000B53B68002807D0002B11D0EE
:102E6000164B3D601E6080BCB846F0BD002BF7D00D
:102E7000906300212000FDF77DFE20001049FDF742
:102E8000B1FFEDE720000E49FDF78EFE0121200085
:102E9000FDF770FE4346502238211B689A635A6B37
:102EA000343311408022520113431960D8E7C046E1
:102EB000982100200080FCBF141600201816002066
:102EC000112E001070B50C4E0D001C003060002A51
:102ED00003DB02211000FDF75DFD002C03DB022166
:102EE0002000FDF757FD29003068FEF725FF01217E
:102EF0000248FFF70DFF70BD98210020E00E002072
:102F000010B5024800F0D8F810BDC046A41D00203E
:102F100030B54B1E012900D1A7E0664A11780D118A
:102F20002C0030349F2900D9A2E00470012B00D17D
:102F3000BEE00F21147821400C003034092900DD57
:102F400098E04470022B00D1B2E05478251129009A
:102F500030319F2C00D990E08170032B00D1A7E085
:102F60000F2121400C003034092900DD87E0C470B6
:102F7000042B00D19CE094782511290030319F2C3E
:102F800000D97FE00171052B00D191E00F21214094
:102F90000C003034092900DD76E04471062B00D1A5
:102FA00086E0D4782511290030319F2C00D96EE0BD
:102FB0008171072B00D17BE00F2121400C003034C0
:102FC000092966DCC471082B00D171E01479251140
:102FD000290030319F2C5FD80172092B68D00F2156
:102FE00021400C003034092958DC44720A2B5FD090
:102FF00054792511290030319F2C52D881720B2B26
:1030000056D00F2121400C00303409294BDCC4720A
:103010000C2B4DD094792511290030319F2C00D9EB
:10302000073101730D2B43D00F2121400C003034A8
:10303000092901DD37310C0044730E2B38D0D179CA
:103040000C11220030329F2900D9073282730F2BD6
:103050002ED00F220A4011003731092A01DC30320C
:103060001100C173102B23D010300023037030BD2A
:1030700007345AE737310C0063E707316CE7373123
:103080000C0074E707317DE737310C0085E7073125
:103090008EE737310C0095E707319DE737310C009B
:1030A000A3E70731AAE737310C00C4720C2BB1D16A
:1030B000C018DAE7A41D002030B5002589B004004F
:1030C0000922002101A80095FFF7CCFC092200216C
:1030D00005A80495FFF7C6FC4B236A4668461370A3
:1030E00004A90D2201F080FB15210822200069446B
:1030F000FFF7BEFC09B030BD10B501210520FDF77A
:1031000039FD10BD10B500220021024800F066F91B
:1031100010BDC046B816002080219022034B8902C2
:10312000995080225201DA647047C0460020115045
:103130008022024B5202DA647047C04600201150D0
:10314000F0B5C64600B5060000F022F90C231B4D71
:10315000FF22AB6705201A49FDF750FD4023984632
:10316000184C402200212000FFF77CFC4346012739
:10317000238321210023144A6770A26013606354E3
:103180005F31618441462187053963540F4A1049F4
:103190006360E260A1620B606362E26201F03CFB8B
:1031A00080239B052F64EB6490230A4A3000EA5089
:1031B000FFF7BEFF80BCB846F0BDC046000011500E
:1031C000B504002098160020840010500001105013
:1031D0008000105010D001000B785B0602D14B78B4
:1031E000052B00D070478A78014B1A60FAE7C04679
:1031F00000001150F0B5C64600B54B790C791B02A2
:1032000088782343CC787F21A4070140C509A20F09
:103210004F001400324E7A195201B21890700120FA
:103220006840507000205B055B0DD0701383D4762E
:103230008046CA00012D33D02A4884468801624462
:103240008446B4446046826040461060002933D012
:10325000254AC90090466246414451603F223F33AF
:103260009343022C00D15B0020487A190168520177
:10327000B218D1601E4ACB180360514053408022DF
:1032800088465201934228D84346A4061C43802313
:103290007F197F011B06F6191C4373681C6011E03F
:1032A00014488446880162448446B444604682627D
:1032B00040461060002909D100236D017619736022
:1032C0000D4BF360012080BCB846F0BD084AC90030
:1032D0009046624641445162C0E7FFF761F8D3E788
:1032E0009816002084001050040010509C1A0020F2
:1032F00000001050800010500001105010B501F077
:103300008BFA10BD10B57F200C0020404000E4096E
:10331000110000191A00034B4001C01800F05EF8BC
:10332000012010BD981600207F22130010B50B401D
:103330000A420BD0C90980225800401806494001B2
:1033400040181201002101F0A7FA10BD0222034823
:10335000C909521A8266EEE7981600200020115023
:103360007F22100010B508400A4200D110BD002392
:10337000C9094000401804494001081800220349C7
:10338000C37001F089FAF1E798160020FFF7FFFFFC
:1033900080220D4B520410B51A600C4B0C491A6078
:1033A00010008B689843FBD10A4C9C22002120001E
:1033B000FFF758FB8022002152010748FFF752FB1C
:1033C0000923636710BDC04600E0004000F00040E4
:1033D00000C00040000011500000105070B5837E06
:1033E00004000D001600002B17D10023E3820133E7
:1033F0002000A682A376256101F016FA002804D0E9
:1034000080219023084A8902D150200001F014FA4B
:10341000002805D00123237770BD01F035FAE4E7D9
:10342000200001F029FAF7E700201150024B5878EC
:10343000431E9841C0B2704728130020024B1878F1
:103440004007C00F7047C04628130020094A10B536
:1034500013785B07DC0F002B05DA18231278134072
:10346000182B02D00024200010BD034B1878FFF762
:1034700053FEF8E7281300201C0F0020034B187898
:10348000FF38431E9841C0B27047C0461C0F002051
:10349000F8B5CE46474680B52C4E0500337801205E
:1034A000FF2B03D0C0BCB946B046F8BD5322002163
:1034B0002748FFF7D7FA274C2000FDF7DFFD264B02
:1034C0001C60264C20001430FDF7F4FD200001F0B4
:1034D0000FF9234B234F1C60234B9846002B04D03D
:1034E000380000E000BF214B1860424600243B78C2
:1034F000002A23D01E4A90461C4A9146A34212D865
:103500000FD14346984701343B78E4B2A342F5D249
:1035100028003570FFF714FE2800FFF7EDFD0120AD
:10352000C0E70020BEE74A461268630094461B19B4
:10353000DB006344002BF4D01B68E3E700F05CFE83
:103540003B780020002BADD1E2E7C0461C0F0020E5
:1035500028130020E01200207C130020000F002020
:10356000801300209C210020000000005C1200203D
:10357000F9410010F0B5DE4657464E464546E0B5E7
:103580008BB000F09FFF002800D10EE1C84BC94F5F
:103590009A46C94D07AC3E687269EFF3108172B666
:1035A0001368002BFCD0BFF35F8FB16130002100A6
:1035B00001F00AF87269B369BFF35F8F00211160EF
:1035C00083F31088002800D1EFE06378082BE2D85D
:1035D00052469B00D3589F466368002BDBD0A068FF
:1035E0009847D8E77F222179B34E0A405000361819
:1035F000B046CB099844404601263030C378B343E7
:10360000C370C3780336B343C370002A00D1F1E01E
:103610004346AA4ADB7C002A06D0A94A1278934284
:1036200000D261E19B1ADBB2002B00D0BDE0A54EB9
:1036300062792078A368B047ADE701222B78012199
:1036400013432B7033230420EA5C8A43EA54EA5C78
:103650008243EA540133EA5C8A43EA54EA5C8243D7
:10366000EA54237800209B4600F0D2FC60222379A4
:103670001A40602A0DD0402A00D1C1E0DB06DB0EE3
:10368000012B00D13BE1022B00D1D6E0002B00D171
:10369000C5E020780021FFF747FE80212078FFF762
:1036A00043FE78E7844E3378DB0700D473E7864B1C
:1036B000002B00D16FE7FCF74BFF6CE77E4E3378B1
:1036C000DB0700D467E7814B002B00D163E730783C
:1036D0000007C00FFCF734FF5DE72378774A984670
:1036E000774B002699461B78002A00D17AE0784A69
:1036F0009346B34260D819D1764B404698474B4623
:1037000001361B78F6B2B342F3D26B4E532200213E
:103710003000FFF7A7F91022FF21F01CFFF7A2F9F4
:1037200030002022FF211330FFF79CF900F066FCE7
:10373000694B002B00D12EE7FCF7FCFE2BE723782A
:103740005E4A98465E4B002699461B78002A1FD099
:103750005F4A93469E423AD321D15E4B40469847FA
:103760004B4601361B78F6B2B342F3D2524E532287
:1037700000213000FFF776F91022FF21F01CFFF73F
:1037800071F930002022FF211330FFF76BF907E0B9
:10379000404600F03BFD4B461B78002BE6D0464EE2
:1037A00000F02CFC2379B370F5E60BB0F0BCBB46FF
:1037B000B246A946A046F0BD5A4612687300944628
:1037C0009B19DB006344002BB0D05B6895E75A4639
:1037D0001268730094469B19DB006344002BDED013
:1037E0005B68BBE7404600F011FD4B461B78002BA1
:1037F0009CD18AE762792078A36800F01DFCCAE6B4
:103800003648002800D144E700F002FC0121584668
:1038100008AA00E000BF002800D0BCE639E7202A53
:1038200000D1A1E0002A00D033E76379092B00D949
:103830002FE72B4A9B00D3589F467023217A0B42D7
:1038400000D026E70F330B405B00E818CE09009349
:103850001A4B8019C07C002B06D0194B1B7898425C
:1038600000D2A4E0C01AC0B2002800D099E0002A1B
:1038700000D057E11B4B984663791A009946022302
:103880009A43012A00D151E14B46002B00D000E7BA
:10389000009B06AAEB189E193036F37802329B077C
:1038A000DB0F13805846022308A900F049FB72E69B
:1038B000784B001080130020281300200000000027
:1038C0009C210020554400105105001041050010B6
:1038D0005C1200200D4200103505001000000000B1
:1038E0009C4B0010044C00105A00D318BB4ADB005C
:1038F0001268D318002B00D157E71E6998E6237A87
:103900000F2B00D9C5E6B64AEB18DB78002A05D0A4
:10391000B44A1278934263D39B1ADBB2002B00D0D7
:10392000B7E6B148B14E00F073FB01215846F36889
:1039300008AA9847002800D02DE6602216002379B7
:103940001E401A4200D0A4E663790A3B012B00D93D
:103950009FE600F05DFB63790A2B00D135E1584604
:1039600008A900F0D5FA16E6237A0F2B00D990E6C5
:103970009B4AEB18DB78002A06D09A4A12789342C9
:1039800000D2F6E09B1ADBB2002B00D081E696480D
:10399000964E00F03DFB01215846F36808AA98476F
:1039A00039E7002A00D074E60023984664E7430014
:1039B00098468A4B40441B68C00098468044002AC1
:1039C00000D159E74346002B00D162E6D86800F0E9
:1039D0001FFB434601215846DB6808AA98471AE7AF
:1039E0007E4A5E00F3181668DB00F618002E00D140
:1039F0004FE6F06897E7A37900931A006B789A4234
:103A000007D06B78002B00D056E1009B002B00D034
:103A1000F8E0009B584608A96B7000F079FABAE507
:103A20006B7806AA023213705846012308A900F0E9
:103A300087FAB0E5E088030AC0B20F2B00D928E668
:103A40006B499A008A58974608A800F0E7FA58464A
:103A5000A179FFF757FB02222B7813432B709AE5CD
:103A6000E388012B00D014E608222B7858469343B4
:103A700008A92B7000F04CFA8DE50220297806ABDE
:103A80009A1C8B068908DB0F01400B4309E7E3888A
:103A9000012B00D0FDE508222B785846134308A9D6
:103AA0002B7000F035FA76E5524B002B00D1F0E593
:103AB00000E000BF021E00D1EBE5D37891781B0235
:103AC0000B43584608A900F03BFAA4E64A4B002BEA
:103AD00000D1DEE500E000BF021E00D1D9E5584666
:103AE000137808A900F02CFA95E62189FCF70AFF63
:103AF000021EF4D1CDE5022B00D11BE13F4B002B80
:103B000000D1C6E500E000BF0200002A00D1C0E5F8
:103B1000D3E7FCF7EBFE1223020008A9584600F099
:103B20000FFA78E6314B3048984650E7E288002A91
:103B300009D14B46012B27D0009BEB189E1930363C
:103B4000F3789B0734D54346002B00D123E5D86892
:103B500000F05EFA43460121DB6808AA5846984700
:103B6000002000F055FA3423EB5CDB0700D512E5AA
:103B7000F5E61A4A5E00F3181668DB00F618002E08
:103B800000D186E5F06804E7009BEB189E193036FB
:103B9000F3789B07D7D51A4B1878FFF7E1FB022281
:103BA000F37893434A46F370F3789343F370CAE78C
:103BB000134B1878FFF7B8FB0222F3781343012266
:103BC000F370F3781343F370BDE706AB9A1C5846C5
:103BD000012308A9167000F0B3F9DCE45C120020A0
:103BE000000000009C210020AD420010044C001099
:103BF000C44B0010000000000000000000000000A6
:103C00001C0F0020581EC0B2FCF778FE002800D11F
:103C10003FE54378022B00D03BE50121C2799311A7
:103C200052110B400A4012015B0113432A782F31D5
:103C30008A4313432B700923994681444E46C37827
:103C400082781B021343C3180293029BB34200D82D
:103C5000ADE00122737803920B2B03D1F378039329
:103C60003378F6187378042B00D012E50021029BFC
:103C7000554A9B1B9BB20193544B884604931B7877
:103C80008A4268D032000E0090469E4256D300D041
:103C9000FFE44F4B019A4146584691469847082801
:103CA00003D94B46834200D388E0049B01361B783E
:103CB000F6B2B342E9D2ECE45846FFF71FFBAB780B
:103CC000414A0193414B002699461B78002A0ED0A9
:103CD000404A90469E4223D31FD13F4B58469847B7
:103CE0004B4601361B78F6B2B342F3D206E0584693
:103CF00000F08CFA4B461B78002B0ED1532200218A
:103D00002800FEF7AFFE1022FF21E81CFEF7AAFEF6
:103D10002022FF213148FEF7A5FE019BAB7074E61F
:103D2000424618231268734394466344002BF4D030
:103D30005B68D3E7FCF7E2FD0200E6E6254B1B6873
:103D400005931823059A734394466344002B00D1CE
:103D50009FE49B689EE731005846019A00F060FAA4
:103D60008146082800D894E4019B834200D290E465
:103D7000002240460AE0B378D318DBB2EB18D978BA
:103D8000FF2900D085E40132D870D2B2039B9A4259
:103D9000F1D18046030031004A46104800F0FAFB9A
:103DA000049B4E441B78434500D34EE771E40C4B13
:103DB000002B00D12DE6FCF7B5FB2AE643468146F1
:103DC000B0461E00D4E7C046000000009C21002041
:103DD000214200105C1200200D4200103B13002015
:103DE00025050010F8B557464E46DE4645460C0000
:103DF000E0B516001F00002A3CD0702398461E4BE9
:103E000000259B461D4B9A461AE05B461B78200016
:103E100099465346997800F081FB00281CD0210078
:103E20004846FFF7E7F9002816D0A378DA09012AF7
:103E300019D00A9A013513702378E418B54219DABB
:103E40006378052B08D1E3789B079B0FBB4203D116
:103E50004246A3781A42D8D00020F0BCBB46B246F6
:103E6000A946A046F8BD0B9A013513702378E418D3
:103E7000B542E5DB0120F0E71C0F002028130020ED
:103E8000074B080019687F2310B50340C0095B0089
:103E900033301818034B181800F018FB10BDC0463B
:103EA0007C130020281300207F2070B508400F4CA1
:103EB0004000CD09241864193034E5780020ED075E
:103EC00000D570BD0126E578094835430078E570D6
:103ED000FFF718FA0028F4D10122E3789343E37046
:103EE000E37803329343E370EBE7C04628130020E6
:103EF0001C0F00207F22CB090A4004495200891878
:103F0000C9183031C878C007C00F70472813002087
:103F100070B50A4E0500300008220C00FEF7A8FD1F
:103F200000237F21F3602278B36091425B41280037
:103F3000D90100220023FFF7B7FF70BD60120020F7
:103F4000F8B5CE46474691462A4E80B5082207006E
:103F500030000D009846FEF78BFD4B46B360002302
:103F6000F381EC79A97924020C43231C444500D940
:103F700043469AB29046B381002C13D0002A1FD03A
:103F80004B46002B34D0131C402A1FD89BB29846B6
:103F900033787F2B20D80021174A43463800FFF79B
:103FA00083FF09E07F222B7838009A426441002386
:103FB0000022E101FFF778FFC0BCB946B046F8BD6A
:103FC00033787F2B11D980210022E6E740239BB272
:103FD000984633787F2BDED9074C4246494620006D
:103FE000FEF746FD80212200D7E700210022D4E71A
:103FF0000020E1E760120020E812002010B5142232
:1040000000210248FEF72EFD10BDC04660120020C0
:10401000014B18617047C0466012002010B5054C76
:10402000010008222000FEF723FD0023A360E360C7
:1040300010BDC04660120020F8B53B4C1D0023782F
:104040000600DA09C9098A4213D00020002D00D0E9
:10405000F8BD364B002B03D021003000FFF7BCF831
:104060002369002B44D0220003213000984701200F
:10407000EEE77F2B06D8A068002837D02A002C490D
:10408000FEF7F6FCA368E28959195219E38892B247
:10409000E281A160934214D03F2D12D9A589A81ABC
:1040A000071C80B240282FD82378BFB27F2B2DD891
:1040B0000021AA4235D01E4A3B003000FFF7F4FE33
:1040C000C6E72369002B05D0220002213000984763
:1040D00000280FD07F220021237830009A424941E6
:1040E00000230022C901FFF7DFFEB1E70020AFE7A0
:1040F0000120ADE700213000FFF716F930008021E4
:10410000FFF712F90120A3E74027CDE7AA4207D025
:10411000074C3A002000FEF7ABFC80212200CBE7E1
:1041200080210022C8E7C04660120020D93100106B
:10413000E81200202C2343430B4810B5C0184478E4
:10414000FFF774F9002801D1002010BDFFF776F9C0
:104150000028F9D1002CF7D021000020FFF7CAFE7B
:1041600001235840C0B2F0E7B4120020F0B5474632
:10417000CE4680B583B06E460F0019000023327022
:1041800005000622737000292FD0B01CFEF770FCCA
:104190002C246C43174BA1469846C1444B46002043
:1041A0005978FFF76DFE00280FD0002F12D1083488
:1041B0004444230006CE06C308232C20454345442F
:1041C000220000206978FFF76FFE03B0C0BCB9463B
:1041D000B046F0BD4B46083444441F7208223100FB
:1041E000601CFEF745FC0923E7E70021B01CFEF741
:1041F00039FCCDE7B412002010B52C220021024872
:10420000FEF730FC10BDC046B412002010B52C22C1
:1042100000210248FEF726FC10BDC046B412002063
:10422000F0B54B7906000D0083B0032B0AD1087955
:10423000C400241A1234A4B2944203D81A4F7B78D3
:10424000002B03D00024200003B0F0BD09786918CA
:104250004B78212BF6D1B9620B780200C9187B1C70
:104260000193BB1C009330000323FFF7BBFD002824
:10427000E8D0AB79012B13D001233B71AB78BA6A3C
:104280003B70137AD1791B020B43B978FB8000296C
:10429000D9D03A00102330001832FFF705FED2E7DC
:1042A000EB79FB70E8E7C046B41200201F23F0B59D
:1042B00014001278050083B01340012B17D1614E12
:1042C00020793378984212D16023180010401342AD
:1042D00008D020280BD163780B2B08D85A4A9B00B2
:1042E000D3589F46012908D16378062B07D00020B8
:1042F00003B0F0BD721D012957D00120F8E7E37823
:10430000212B00D180E0222BF1D10020FCF7F2FA22
:1043100021000200F3882800FFF712FE0120E7E7E2
:10432000012917D00329E8D1A178484B3171002B1E
:10433000E3D0002000E000BF0120D9E70129DCD153
:10434000E178434B7171002B04D0002000E000BFE6
:104350000028CCD021002800FFF7DAFD0120C7E7B4
:1043600001295BD00329C8D1E079A3790002184361
:10437000E278A178041C102800D910243300A4B2DC
:104380001833002908D0012806D9307E884203D18D
:104390003300013CA4B2193300200094FCF74EFA1C
:1043A0000120A5E70129A8D1321D01232100280001
:1043B000FFF7C6FD01209BE701299ED1E379A07993
:1043C0001B020343E278A178181C102B00D910209F
:1043D00080B2002931D0012B2FD9330001270138B9
:1043E000317280B2093300900020FCF725FA3F18A3
:1043F000BBB2002B00D17AE732002100280008323E
:10440000FFF79EFD012073E7B26A002A00D16EE734
:10441000210028001378FFF793FD69E7E379A2797B
:104420001B021343102B00D961E732002100280042
:104430001832FFF785FD01205AE7330000270833C3
:10444000D1E7C046B41200201C4C00100000000050
:104450000000000070B5164C0500A27882B08A42B8
:104460000FD16178914211D1124A0125002A05D05D
:10447000210000209AB20831FCF7A2F9280002B00E
:1044800070BD627800258A42F8D1EDE726009BB224
:10449000183600220021002000933300FCF7CEF9EB
:1044A000280010233200A178FFF7FEFC0500E5E7A5
:1044B000B4120020C107001010B50020FEF7E8FF7D
:1044C00010BDC04610B5FEF7D9FF10BD037870B51A
:1044D000DB0704000E00DD0F002B17D103785B070C
:1044E00001D5280070BD01213000494200F0B4F927
:1044F0002378DB07DD0F002B0AD123785B0708D474
:104500000422237801251343237002E00025E8E705
:104510000025300000F070F9E3E7C04610B543799C
:1045200004791B0223435B055A0DC3789B079B0F3D
:10453000022B05D0032B15D00020012B08D010BD75
:1045400002291CD00020402393424041C0B2F6E72C
:1045500002394B4259410D4B9C46614491424041C6
:10456000C0B2ECE702394B425941F02300204942E6
:104570009B001940403191424041C0B2DFE7044BFB
:10458000D3185A425341D8B2D9E7C046FF030000BE
:1045900000FEFFFF8A1870B5914207D27F264C7843
:1045A000052C04D00C7809198A42F8D870BD340063
:1045B0008D782C4064000419ED0963550C780919B5
:1045C0008A42ECD8F2E7C04670B5040000690E00DC
:1045D000002803D00121494200F03EF92589608975
:1045E000A288A9B283B285422CD3CD1AADB2002DD8
:1045F0002ED0AA4208D2914231D38B1A9BB263814A
:104600009A4203D89B1A9BB29A42FBD9E28821684E
:104610005204520C53433000C918FEF729FA61893D
:1046200001254B1C9BB2A288994214D90023520049
:104630009B1A9BB220696381002801D000F0DCF84E
:10464000280070BD5500ED1A4D19ADB2002DD0D126
:10465000002563899BB252009342EBDBE8E789189F
:104660008BB26381CCE7C046F8B50400C0680E0089
:10467000002803D00121494200F0EEF82589208965
:104680006189A288ADB283B28FB2884228D3DB1B86
:104690009BB29A4209D8E779FF0906D1E068002861
:1046A00001D000F0A9F83800F8BD2B00954203D3E3
:1046B0009B1A9BB29342FBD2E28821685204520CAF
:1046C0005343C8183100FEF7D3F9A2886B1C9BB284
:1046D00052009D4209D99B1A9BB201272381DDE735
:1046E0005100C91B5B189BB2D3E79342F5DBF2E79D
:1046F00010B50400C068002803D00121494200F031
:10470000ABF82069002803D00121494200F0A4F849
:104710000023E06863812381002801D000F06CF859
:104720002069002801D000F067F8012010BDC046C4
:1047300010B51920FCF75EF9D0238022E1211B0679
:1047400092045A620448054B002218604902012372
:10475000FEF7B8FB10BDC046004003409421002086
:10476000D02380221B069204002801D05A61704792
:104770009A61FCE710B500F097F801235840C0B2E9
:1047800010BDC04610B583070AD00300032102E024
:1047900001330B4205D01A78002AF9D1181A10BD3E
:1047A000030019680C4A0D4C8A188A4322420FD123
:1047B0005968094A04338A188A43224208D1596841
:1047C000054A04338A188A432242F1D000E00133BB
:1047D0001A78002AFBD1E1E7FFFEFEFE8080808090
:1047E000F8B5C0460000000001B40248844601BC90
:1047F000604700BF8D02002001B40248844601BC1E
:10480000604700BFED01002001B40248844601BCAE
:10481000604700BFBD0D002001B40248844601BCC2
:10482000604700BF5103002001B40248844601BC28
:10483000604700BF8D09002001B40248844601BCD6
:10484000604700BFB509002001B40248844601BC9E
:10485000604700BFBD0D002001B40248844601BC82
:10486000604700BF5D01002001B40248844601BCDE
:10487000604700BFC100002001B40248844601BC6B
:10488000604700BF310B002001B40248844601BCE0
:10489000604700BFCD0A002001B40248844601BC35
:1048A000604700BFD90A002001B40248844601BC19
:0848B000604700BF5D0D002010
:1048B800090000000A0000000B0000000C000000C6
:1048C8000D0000000E0000000F00000012000000A4
:1048D80013000000140000000000000001000000A8
:1048E80002000000030000000400000005000000B2
:1048F80006000000070000000800000054696E79F7
:104908005553420054696E7955534220446576697F
:10491800636500000904000009022200010100A0EB
:1049280032090400000103000000092111010001FF
:1049380022EF0007058103100005000012010002A4
:1049480000000040FECA044000010102030100000B
:1049580005010906A1018501050719E029E71500E8
:1049680025019508750181029501750881010508E1
:1049780019012905950575019102950175039101A4
:10498800050719002AFF00150026FF00950675087F
:104998008100C005010902A10185020901A10005E4
:1049A800091901290515002501950575018102954B
:1049B80001750381010501093009311581257F95AC
:1049C800027508810609381581257F9501750881CA
:1049D80006050C0A38021581257F950175088106A0
:1049E800C0C0050C0901A1018503150026FF0319A4
:1049F800002AFF03950175108100C005010905A172
:104A080001850405010930093109320935093309DD
:104A1800341581257F950675088102050109391528
:104A28000125083500463B019501750881020509F5
:104A38001901292015002501952075018102C00062
:104A48004E6F207370696E6C6F636B732061726553
:104A580020617661696C61626C650000486172640E
:104A68007761726520616C61726D20256420616CCC
:104A7800726561647920636C61696D65640000002A
:104A88000A2A2A2A2050414E4943202A2A2A0A0063
:104A98000A000000486172642061737365727400D3
:104AA80052656C6561736500626F6F74325F77324F
:104AB8003571303830000000312E352E31000000BD
:104AC8007069636F000000006B6579626F617264E2
:104AD8000000000041756720203420323032340055
:104AE80006005250BBFF3CB6C84A001006005250A0
:104AF800E182887FB04A001006005250D3F0754218
:104B0800A84A00100D0A0000556E68616E646C6555
:104B1800642049525120307825780A006570202594
:104B2800642025732077617320616C7265616479F4
:104B380020617661696C61626C65000043616E2773
:104B48007420636F6E74696E75652078666572206F
:104B58006F6E20696E6163746976652065702025C3
:104B680064202573000000006F757400696E0000F2
:104B7800963500103E370010DA36001096350010D2
:104B8800BC360010A43600103A360010E435001088
:104B9800D83500107A3A0010603A001092360010AA
:104BA8008E3A001092360010483A0010343A00103D
:104BB80092360010203A0010F63900109236001094
:104BC800123B0010F63A0010EA3A00109236001034
:104BD80092360010CC3A0010F63A001092360010C7
:104BE800923600109236001092360010923600105D
:104BF8009236001092360010A83A0010F9410010C1
:104C08000D42001021420010AD4200105544001022
:104C180000000000EE420010B8430010F4420010FB
:104C2800A4430010EE420010EE420010EE420010C5
:104C3800EE420010EE420010604300103C430010AA
:104C4800204300104C454400090052500000000267
:0C4C58004C4C00100800525012000000EC
:104C6400AC020010A002001094020010E84A0010E8
:104C740088020010F44A0010004B0010504C001041
:044C84005C4C001074
:104C8800F0B5C646150000B504001E000268EFF333
:104C9800108172B61368002BFCD0BFF35F8F04231A
:104CA800E356002B2DDB2268BFF35F8F00201060D6
:104CB80081F31088D0221206127852B290469A4296
:104CC80003D1002080BCB846F0BD00270BE0236864
:104CD800BFF35F8F1F6081F310882800310000F058
:104CE8005FFE0028EDD12268EFF3108172B61368D9
:104CF800002BFCD0BFF35F8F23797F2BE7D9434686
:104D080002E0D0231B061B6823712368BFF35F8F63
:104D180000221A6081F310880120D3E7F0B5C64657
:104D280000B50D00040000F05BFEFA2206000F003B
:104D3800002328000021920000F042FE36184F415F
:104D4800002F2CDBD0231B061B68002598460BE0A0
:104D58002368BFF35F8F1D6081F31088300039002E
:104D680000F01EFE002818D12268EFF3108172B6F9
:104D78001368002BFCD0BFF35F8F23797F2BE7D913
:104D8800434623712368BFF35F8F00221A6081F3C3
:104D98001088012080BCB846F0BD0020FAE7012643
:104DA800014F7642CEE7C046FFFFFF7F0268EFF370
:104DB800108172B61368002BFCD0BFF35F8FFF23FE
:104DC80003710368BFF35F8F00221A6081F31088B4
:104DD80040BF7047084810B50378002B0AD18023DC
:104DE8000649074A5B051C68CC5004339342FAD144
:104DF8000123037010BDC0469E21002054140010EA
:104E08000001001010B5024B0133984710BDC04691
:104E180054140020034B1A68C0239B009343024A92
:104E2800136070470C8001400C900140054B1A68D4
:104E380080239B005340C02292001340024A136013
:104E48007047C0460C8001400C9001401423F0B517
:104E5800D6464F4646469A46814618880433C0B51A
:104E680098460E001B8827491400984753460700A8
:104E78001888434624491B889847534605001888D4
:104E8800434622491B8898478046FFF7A3FFB84747
:104E9800A847FFF7CBFF002C1BD0C0212200082712
:104EA800022049053D008B6A1D4018420BD0002C9A
:104EB80009D0131B0D2B1FD84B461B78013C0B66E2
:104EC80001239C46E1442300002D0CD11343002B01
:104ED800E8D1FFF79FFFC047FFF794FFE0BCBA4651
:104EE800B146A846F0BD002AF1D00B6E013A3370E6
:104EF800130001362343EAE7002DD3D0002AD1D08E
:104F0800F3E7C04649460000455800004643000004
:104F180000231C4A10B59360D3601B4A002193609C
:104F2800D3601A4A1A489360D3601A4A9360D360D0
:104F3800194A9360D360194A9360D360184A936002
:104F4800D360184A9360D360174A9360D360174AB6
:104F58009360D360164A9360D360164A9360D36017
:104F6800154A9360D360154A9360D360144A9360DE
:104F7800D360F022920000F00BFD124B124A1A6027
:104F880010BDC0460000105008001050100010500E
:104F9800D81600201800105020001050280010507B
:104FA8003000105038001050400010504800105089
:104FB80050001050580010506000105068001050F9
:104FC800700010509C1A002080011050F0B5574610
:104FD800DE464E464546E0B5234B87B09F6D002F11
:104FE80023D0224B0024994601239846204B0126C2
:104FF8009A4604E001347600E4B2202C15D03E42F3
:10500800F8D04B469E65434665086D00A343ED18EE
:105018006D015544280000F0A1FB00280CD1013493
:10502800B743E4B27600002FE7D107B0F0BCBB4627
:10503800B246A946A046F0BDAB7808229B46EB8A4B
:10504800002103A8019300F0A3FC0723594602AAF4
:105058005371019B117203A80121059300F0A6FB6F
:10506800280000F013FBDAE700001150003011505F
:10507800981600209823D14A70B5D55880232C0063
:105088009B02102684B01C401D4278D0CC4BCD4CDE
:105098009A6ACD4B00261A603B23E35C022B00D1B1
:1050A800D7E07B23E35C022B00D11AE2BB23E35C4D
:1050B800022B00D103E2FB23E35C022B00D1ECE1DD
:1050C8003C23FF33E35C022B00D1D1E17C23FF3387
:1050D800E35C022B00D1B6E1BC23FF33E35C022B77
:1050E80000D19BE1FC23FF33E35C022B00D14FE1AD
:1050F800B64BE35C022B00D136E1B54BE35C022BE7
:1051080000D11DE1B34BE35C022B00D104E1B24BAB
:10511800E35C022B00D1EBE0B04BE35C022B00D147
:10512800D2E0AF4BE35C022B00D1B9E0AD4BE35CBE
:10513800022B00D19EE0AC4BE35C022B00D1E2E1F4
:10514800002E08D1A94B1B78002B04D18021A84A36
:1051580090338902D15001AE984B0C2200213000C7
:105168009C6C00F015FC03236405640D737030001B
:1051780002940121802400F019FB9E4EA402EB0644
:1051880063D480235B021D4214D0012223211C43D7
:105198008C4B5A54DA70C023974ADB00019302AB58
:1051A80003CA03C3012101A800F000FB8022904B31
:1051B80092021A6580235B011D422FD18023DB01F7
:1051C8001D421AD180231B021D4204D1AC4200D0DB
:1051D800B3E104B070BD01AE0C22002130001C43C5
:1051E80000F0D6FB052301217370300000F0DEFAD1
:1051F80080227F4B12011A65E8E701AE0C220021DC
:1052080030001C4300F0C4FB0423012173703000FC
:1052180000F0CCFA1022764B1A65D3E700221C4323
:10522800664B01AE1A60FFF773FE0C2200213000B6
:1052380000F0AEFB012301217370300000F0B6FAD4
:1052480080226B4B12031A65B8E7FFF7BFFE3400E4
:1052580097E73833E65C002E00D122E70233E25CA0
:10526800002A00D11DE700222000E254203000F07F
:105278003FFA16E7614BE35C002B00D15BE7EF23B5
:105288009B00E25C002A00D04FE1574BE35C022B05
:1052980000D060E75A4BE35C002B00D038E15AE7B6
:1052A800584BE35C002B00D140E7DF229200A15C61
:1052B8001E00002900D139E70023A354D8239B00FE
:1052C800E01800F015FA31E74F4BE35C002B00D1F2
:1052D80027E7CF229200A15C1E00002900D120E719
:1052E8000023A354C8239B00E01800F001FA18E734
:1052F800464BE35C002B00D10EE7BF229200A15C75
:105308001E00002900D107E70023A354B8239B00FF
:10531800E01800F0EDF9FFE63D4BE35C002B00D10F
:10532800F5E6AF229200A15C1E00002900D1EEE64E
:105338000023A354A8239B00E01800F0D9F9E6E65F
:10534800344BE35C002B00D1DCE69F229200A15C89
:105358001E00002900D1D5E60023A35498239B0002
:10536800E01800F0C5F9CDE62B4BE35C002B00D12B
:10537800C3E68F229200A15C1E00002900D1BCE682
:105388000023A35488239B00E01800F0B1F9B4E689
:10539800F933FF33E35C002B00D1A9E6FE2252006B
:1053A800A15C1E00002900D1A2E620000023E13004
:1053B800A354FF3000F09CF99AE6C0460000115053
:1053C8000040054098160020901600203B0200007F
:1053D8007B020000BB020000FB0200003B03000050
:1053E8007B030000BB030000FB0300009D2100209D
:1053F800003011501000020000001050BA030000E5
:10540800FA0300007A0300003A030000FA020000E1
:10541800BA0200007A0200003A020000B933FF33F2
:10542800E35C002B00D15DE6DE225200A15C1E0089
:10543800002900D156E620000023A130A354FF30F4
:1054480000F056F94EE67933FF33E35C002B00D1C8
:1054580042E6BE225200A15C1E00002900D13BE6B4
:10546800200000236130A354FF3000F041F933E6F7
:105478003933FF33E35C002B00D127E69E2252002C
:10548800A15C1E00002900D120E620000023213065
:10549800A354FF3000F02CF918E6F833E35C002B36
:1054A80000D10DE6FC22A15C1E00002900D107E610
:1054B80000232000A354E03000F01AF900E6B833C6
:1054C800E35C002B00D1F6E5BC22A15C1E0000299C
:1054D80000D1F0E500232000A354A03000F008F923
:1054E800E9E57833E35C002B00D1DFE57C22A15CA1
:1054F8001E00002900D1D9E500232000A354603004
:1055080000F0F6F8D2E50F4BE35C002B00D117E66C
:10551800FF239B00E25C002A00D11CE60022E25433
:105528001C3BE01800F0E4F815E60022E254E823FA
:105538009B00E01800F0DCF8A7E62100024869406B
:1055480000F01EFAFA030000104B0010084A03008E
:10555800126C0020920703D49A78D209012A00D04D
:105568007047D87E023843425841C0B2F8E7C04677
:105578000000115010B5FFF7E9FF00280CD00749CB
:10558800074B8C46074A9B6A126863449B1A0020A3
:10559800C6229A424041C0B210BDC046E0FCFFFF9F
:1055A8000040054090160020F8B5028B838A04005D
:1055B8000F00161C9A4200D91E1C8025B6B29B1BF0
:1055C800E2789BB2ED00A3823543002A02D09025F1
:1055D800AD01354301214A40E2706278002A09D0C2
:1055E800002B02D18023DB011D43002F00D02D04A6
:1055F8002800F8BDE368B8019C4632006044216980
:1056080000F0D6F923699C46802366441B021D439B
:105618002661A38AE4E7C046836870B504001D6864
:10562800002900D02D0C6378AD05AD0D002B09D1F4
:10563800E38AEB18E382238BAB4201D90023A382D0
:10564800280070BDE36889019C462A0020696144EE
:1056580000F0AEF9E38AEB18E38223695B19236152
:10566800E9E7C04610B50400836800211B68FFF70E
:10567800D3FF63681B685B0002D5238B834200D08D
:1056880010BD01212000FFF7C7FFF9E7002383764B
:10569800436103617047C04610B58368002901D093
:1056A8001C682140002A11D08024E40011432242C2
:1056B8000CD01A6822420BD10A4A0A401A60FFE746
:1056C800FFE7FFE7FFE7FFE7FFE78368196010BD23
:1056D8007F2281780448CB091140044A9B009A58DC
:1056E80000F04EF9FFFBFFFF244B0010F80E0020DE
:1056F800436870B5002180251E680400FFF754FF39
:10570800134B6D011B6C05439B070FD5A3785B06F4
:105718000FD0104B1E4080239B0533436268002145
:10572800136020002A00FFF7B7FF70BDA378DB09DC
:10573800EFD0A38A002BECD001212000FFF734FF23
:10574800A023054ADB05324005431343E6E7C0467C
:1057580000001150FFFFFFAFFFFFFFDF70B5857E30
:105768000400002D13D0FFF77DFFA38A002B01D181
:10577800280070BD2000FFF7FDFE051E03D00123A1
:1057880000252377F4E72000FFF7B2FFF0E77F2238
:1057980081780448CB091140034A9B009A5800F0CD
:1057A800EFF8C046444B0010F80E0020F0B54378DF
:1057B800050085B0042B00D175E046D8022B00D136
:1057C80083E0032B55D1504E504A00243378002AE9
:1057D80000D192E04E4F03E00134E4B29C4214D869
:1057E800A342F9D9396862008C461219D200624482
:1057F800002AF1D05269002AEED0287869689047CB
:1058080001343378E4B29C42EAD9424B1A78520701
:1058180047D504211A7801A88A431A7000210C225E
:1058280000F0B6F86A462B781371052353713A4B8A
:105838001C686269EFF3108172B61368002BFCD004
:10584800BFF35F8FA16101A920E0052B11D1314B76
:105858001A78D20725D504211A788A431A702E4B54
:105868001C686269EFF3108172B61368002B09D1C6
:10587800FBE7294B1C686269EFF3108172B6136865
:10588800002BFCD0BFF35F8FA1612900200000F03E
:105898009FF86269A369BFF35F8F0021116083F3EA
:1058A800108805B0F0BD1B4B1A78D207F9D5042132
:1058B8001A780A431A70184B1C686269EFF3108152
:1058C80072B61368002BDDD1FBE70120114A11786D
:1058D800814311701178994300231170042153708A
:1058E80013788B4313700C4B1C686269EFF31081BB
:1058F80072B61368002BC5D1FBE700220132D2B281
:105908009A42FBD981E7C0469C2100200000000094
:105918005C120020281300208013002082B0EFF3CF
:10592800108172B6134B1A6880239B015340C02222
:1059380092011340104A13600023FA220193019B3D
:105948009200934205DA019B01330193019B934234
:10595800F9DBD023C0221B069868064B92011B680E
:105968001340054A136081F310888007C00F02B006
:105978007047C0460C8001400C9001407047C046FB
:1059880001B40248844601BC604700BF712300107F
:1059980001B40248844601BC604700BF652A001074
:1059A80001B40248844601BC604700BFD915001005
:1059B80001B40248844601BC604700BF712A001048
:1059C80001B40248844601BC604700BF9129001019
:1059D80001B40248844601BC604700BF6946001014
:1059E80001B40248844601BC604700BF811700101B
:1059F800FA0000001C490010044900100C4900106E
:105A0800AC1D002010000000000000000000010094
:105A1800000000000000000000000200000000007C
:105A2800000000000000030000000000000000006B
:105A38000000FF000000000001B5486801318E46F3
:105A48000047704609380149884701BD950F001085
:105A5800A80E002000000000400F00204C16002077
:105A680000000000000000005C160020000000009C
:105A7800000000001000000000000000000000000E
:105A8800503300004C330000543300005233000000
:105A98004D5300004D4300005334000043340000D0
:105AA800412D0010000000008D2D0010392E00102F
:105AB8000000000000010000704B0010744B001043
:105AC8008413002010000C000000000000000000FB
